:100000000C942A001895000018950000189500001F
:10001000189500001895000018950000189500002C
:10002000189500001895000018950000189500001C
:10003000189500001895000018950000189500000C
:1000400018950000189500001895000018950000FC
:10005000189500008FE58DBFC0E4E6E24E2E88E0E3
:100060008EBFD8E0F8E05F2EEEEFF7E0A0E6B0E05C
:1000700088278D933197E9F783E389B980E080BDC4
:1000800088E18AB9662480E884BF80E884BF8F9ABB
:10009000A098A19880E085BB979AA99AEF93FF93C7
:1000A000E4E2F0E00E948C00FF91EF91A998002714
:1000B000A3E3B0E08C9181FB0EF401E040E0041773
:1000C00011F00C9457009798EF93FF93ECE4F0E055
:1000D0000E948C00FF91EF910C944C00E0E5F1E060
:1000E0000E947E000E94850084EF91E00E949500AE
:1000F0000C946E00F894FFCF000008950E94A400B5
:10010000802D11F005D0FACF08958DE001D08AE05E
:100110005D9BFECF8CB908953197F1F708956894EF
:1001200062F80895E89462F80895EF93FF93EE273C
:10013000E82BE92B31F0E0EAFFE03197F1F7019786
:10014000D1F7FF91EF910895C89531960020089559
:0C01500068656C6C6F20776F726C640047
:00000001FF
