:100000000C942A001895000018950000189500001F
:10001000189500001895000018950000189500002C
:10002000189500001895000018950000189500001C
:10003000189500001895000018950000189500000C
:1000400018950000189500001895000018950000FC
:10005000189500008FE58DBFC0E4E6E24E2E88E0E3
:100060008EBFD8E0F8E05F2EEEEFF7E0A0E6B0E05C
:1000700088278D933197E9F787E689B980E080BDBD
:1000800088E18AB9662480E884BF80E884BF80E084
:100090008ABBA098A198A298A3988C9A8D9A8E9AC0
:1000A0008F9A87E086B9379A80E08BBB80E085BB6A
:1000B00080E082BB80E090E090934B0080934A0008
:1000C00080E090E090934900809348008BE10E948B
:1000D0008E01ECE3F4E00E9484018BE10E948E012A
:1000E000E0E4F4E00E94840181E0809381000091CB
:1000F0008100063018F011F00C94E50000918100A9
:1001000041E0041BA2E8B0E00C93A2E8B0E08C91BF
:1001100090E0890F87B90E94AA01A3E8B0E08D930F
:100120009C93A3E8B0E00D911C91A1E8B0E0AD90E4
:10013000BB24AFE6B0E0AA0CBB1CAA0DBB1D4D91C1
:100140005C91040F151FA3E8B0E00D931C93A3E886
:10015000B0E00D911C9142E050E00E946201A1E8E4
:10016000B0E0AD90BB24AFE6B0E0AA0CBB1CAA0D7A
:10017000BB1D4D935C93E4E4F4E00E948401AEE087
:10018000B8E0E1E8F0E00E94D4010E947C01ECE4D8
:10019000F4E00E948401AEE0B8E0E1E8F0E0A19074
:1001A000BB24EFE6F0E0AA0CBB1CEA0DFB1D0E948D
:1001B000C5010E947C010E948B01A1E8B0E08C91F6
:1001C0008F5F8C9310F40C947700A89AA99AAA9A3E
:1001D000AB9AEF93FF93E4E2F0E00E949201FF916B
:1001E000EF91A898A998AA98AB98EF93FF93ECE4A5
:1001F000F0E00E949201FF91EF91A3E3B0E08C91B7
:1002000080FBADE7B0E0882780F98C93A3E3B0E0F2
:100210008C9181FBAEE7B0E0882780F98C93A3E353
:10022000B0E08C9182FBAFE7B0E0882780F98C9337
:10023000A3E3B0E08C9183FBA0E8B0E0882780F9CD
:100240008C93949A9798969A959A929A939888EC08
:1002500090E00E949B010C9466000C942D01E0E557
:10026000F4E00E9484010E948B0184EF91E00E94DF
:100270009B010C942F01F894FFCF0000089500FC1F
:1002800010D0089503D01ED001F8F9CF0024E894CF
:1002900057FF02C009D0689400F80BD010F8012471
:1002A000089502D009D00895509540954F5F5F4F53
:1002B0000895E89417FF0895009510950F5F1F4F5C
:1002C00068940895352F242FE894452B11F46894F1
:1002D0000895512F402F0027112780E1440F551F0B
:1002E000001F111F021B130B416018F4020F131F94
:1002F0004E7F8A9599F70895AEE0B8E08D918823F6
:1003000011F00CD0FBCF08950E94B301802D11F0A5
:1003100005D0FACF08958DE001D08AE05D9BFECF35
:100320008CB908953197F1F70895689462F80895AB
:10033000E89462F80895EF93FF93EE27E82BE92BFA
:1003400031F0E0EAFFE03197F1F70197D1F7FF9143
:10035000EF910895369A3699FECF369A3699FECFA8
:1003600084B195B10895C895319600200895000F85
:10037000111F221F331F0895009510952095309569
:100380000F5F1F4F2F4F3F4F0895019110810EC0F7
:1003900001911191219130810BC00191108117FFC2
:1003A00005C03FEF2FEF04C000811127222733271C
:1003B00037FF03C0E1DF8DE28D93CF93DF93CF92C0
:1003C000DF92EF92AA24BB24CC24DD24EE2440E269
:1003D000CAE0DD2755E093E38881890F87FD9F7090
:1003E00083FD907F891B89935A95A9F7C0DFAA1CCA
:1003F000BB1CCC1CDD1CEE1C4A9551F7E894EFE0C9
:10040000FF2782910ED0EB30E0F71EF068948A2D22
:100410000CD088278D93EF90DF90CF90DF91CF9114
:100420000895982F829501D0892F8F70805D26F0D6
:10043000803309F4089568948D9308955B324A00DF
:100440005B3B480073686172702000003A20000036
:0C04500068656C6C6F20776F726C640044
:00000001FF
