:100000000C942A001895000018950000189500001F
:10001000189500001895000018950000189500002C
:10002000189500001895000018950000189500001C
:10003000189500001895000018950000189500000C
:1000400018950000189500001895000018950000FC
:10005000189500008FE58DBFC0E4E6E24E2E88E0E3
:100060008EBFD8E0F8E05F2EEEEFF7E0A0E6B0E05C
:1000700088278D933197E9F783E389B980E080BDC4
:1000800088E18AB9662480E884BF80E884BF8F9ABB
:10009000A098A19880E085BBA99AEF93FF93E4E232
:1000A000F0E00E949700FF91EF91A998EF93FF93E2
:1000B000ECE4F0E00E949700FF91EF91A3E3B0E041
:1000C0008C9181FBA0E6B0E08C9187F98C9300279E
:1000D000A0E6B0E08C9187FB0EF401E041E004174C
:1000E00011F00C947600979A0C94770097980C94E2
:1000F0004C00E6E6F1E00E9489000E94900084EF47
:1001000091E00E94A0000C947900F894FFCF0000C9
:1001100008950E94AF00802D11F005D0FACF089508
:100120008DE001D08AE05D9BFECF8CB908953197B8
:10013000F1F70895689462F80895E89462F80895D4
:10014000EF93FF93EE27E82BE92B31F0E0EAFFE095
:100150003197F1F70197D1F7FF91EF910895C89585
:1001600031960020089568656C6C6F20776F726C13
:02017000640029
:00000001FF
