:100000000C942A001895000018950000189500001F
:10001000189500001895000018950000189500002C
:10002000189500001895000018950000189500001C
:10003000189500001895000018950000189500000C
:1000400018950000189500001895000018950000FC
:10005000189500008FE58DBFC0E4E6E24E2E88E0E3
:100060008EBFD8E0F8E05F2EEEEFF7E0A0E6B0E05C
:1000700088278D933197E9F783E389B980E080BDC4
:1000800088E18AB9662480E884BF80E884BF8F9ABB
:10009000979AE1E0F0E00E9472009798E1E0F0E0CA
:1000A0000E9472000C944800E8E2F1E00E946400B3
:1000B0000E946B0084EF91E00E9481000C94540038
:1000C000F894FFCF000008950E949000802D11F059
:1000D00005D0FACF08958DE001D08AE05D9BFECF78
:1000E0008CB9089588EE93E00CD03197D9F7089534
:1000F0003197F1F70895689462F80895E89462F8EA
:100100000895EF93FF93EE27E82BE92B31F0E0EA17
:10011000FFE03197F1F70197D1F7FF91EF91089543
:10012000C89531960020089568656C6C6F20776FD4
:04013000726C640089
:00000001FF
