:100000000C942A001895000018950000189500001F
:10001000189500001895000018950000189500002C
:10002000189500001895000018950000189500001C
:10003000189500000C9464021895000018950000B3
:1000400018950000189500001895000018950000FC
:10005000189500008FE58DBFC0E4E6E24E2E88E0E3
:100060008EBFD8E0F8E05F2EEEEFF7E0A0E6B0E05C
:1000700088278D933197E9F787E689B980E080BDBD
:1000800088E18AB9662480E884BF80E884BF80E084
:100090008ABBA098A198A298A3988C9A8D9A8E9AC0
:1000A0008F9A87E086B9379A8D9A8C9A81EA8FBDAC
:1000B00083E08EBD80E08BBB80E085BB80E082BBAF
:1000C00080E090E090934B0080934A0080E090E0C5
:1000D000909349008093480080E090E0A7E8B0E06A
:1000E0008D939C9380E090E0A9E8B0E08D939C9381
:1000F0008FEF90E0ABE8B0E08D939C93579A7894A3
:100100008BE10E94D303ECE0F8E00E94C9038BE18D
:100110000E94D303E0E1F8E00E94C9038BE10E9452
:10012000D303E4E1F8E00E94C90381E080938100F9
:1001300000918100063018F011F00C94E400009159
:10014000810041E0041BA2E8B0E00C93A2E8B0E01B
:100150008C9190E0890F87B90E94F903A3E8B0E081
:100160008D939C93A3E8B0E00D911C91A1E8B0E0C1
:10017000AD90BB24AFE6B0E0AA0CBB1CAA0DBB1D22
:100180004D915C91040F151FA3E8B0E00D931C93F3
:10019000A3E8B0E00D911C9142E050E00E94A6035C
:1001A000A1E8B0E0AD90BB24AFE6B0E0AA0CBB1C68
:1001B000AA0DBB1D4D935C93A1E8B0E08C918F5FBD
:1001C0008C9310F40C949800F894A89AA99AAA9A7F
:1001D000AB9AEF93FF93E4E2F0E00E94D703FF9124
:1001E000EF91A898A998AA98AB98EF93FF93ECE4A5
:1001F000F0E00E94D703FF91EF91A3E3B0E08C9170
:1002000080FBADE7B0E0882780F98C93A3E3B0E0F2
:100210008C9181FBAEE7B0E0882780F98C93A3E353
:10022000B0E08C9182FBAFE7B0E0882780F98C9337
:10023000A3E3B0E08C9183FBA0E8B0E0882780F9CD
:100240008C937894A7E8B0E00D911C91003050E0B9
:10025000150781E009F080E08F93A9E8B0E00D91E7
:100260001C91003050E0150781E009F080E09F917B
:100270008923882311F40C944F0180E090E090933F
:100280004B0080934A0080E090E090934900809377
:100290004800969A979A929A939A0C944D02A9E8DC
:1002A000B0E00D911C9100385FEF150780E014F06D
:1002B00009F081E08F93A9E8B0E00D911C9100381E
:1002C00050E0150780E00CF481E09F91892388239A
:1002D00011F40C948201A7E8B0E00D911C9100305C
:1002E00050E015071CF011F00C9478010C947E017D
:1002F000969A9798929A93980C9482019698979AC6
:100300009298939AA9E8B0E00D911C9101385FEFA3
:1003100015070CF402C00C94A401A7E8B0E00D91FD
:100320001C91003050E015071CF011F00C949A015C
:100330000C94A001969A97989298939A0C94A40181
:100340009698979A929A9398A9E8B0E00D911C918B
:100350000F3750E015071CF011F00C94B1010C940C
:10036000C601A7E8B0E00D911C91003050E01507E0
:100370000CF402C00C94C201969A97989298939AA2
:100380000C94C6019698979A929A9398A9E8B0E02F
:100390008D919C910E94A003A5E8B0E08D939C9361
:1003A00000E810E0A5E8B0E04D915C91041B150B4E
:1003B000A5E8B0E00D931C93A5E8B0E08D919C9169
:1003C0000E94A003A5E8B0E08D939C93A5E8B0E05F
:1003D0000D911C91A7E8B0E04D915C910E94EF0354
:1003E000A5E8B0E00D931C93A5E8B0E00D911C9139
:1003F00040E850E00E948003A5E8B0E04D935C9394
:10040000A5E8B0E08D919C910E94A003A5E8B0E022
:100410008D939C93A9E8B0E00D911C91003050E0C1
:1004200015071CF011F00C9417020C943302A5E888
:10043000B0E08D919C919093490080934800A7E88B
:10044000B0E08D919C910E94A003A5E8B0E08D934F
:100450009C93A5E8B0E08D919C9190934B00809384
:100460004A000C944D02A5E8B0E08D919C919093C8
:100470004B0080934A00A7E8B0E08D919C910E94C8
:10048000A003A5E8B0E08D939C93A5E8B0E08D9122
:100490009C91909349008093480088EC90E00E94E2
:1004A000E0030C9480000C945302EAE1F8E00E940F
:1004B000C9030E94D00384EF91E00E94E0030C94F2
:1004C0005502F894FFCF00000F921F922F923F9297
:1004D0004F925F927F92AF92BF920F931F932F9391
:1004E0003F934F935F936F937F938F939F93AF93BC
:1004F000BF93CF93DF93EF93FF938FB78F9331E049
:10050000ADE8B0E00E94C00387E7482F00918D005E
:10051000041711F00C949A02ABE8B0E08D919C9115
:10052000A7E8B0E08D939C9380E090E0A9E8B0E06C
:100530008D939C9381E6482F00918D00041711F054
:100540000C94B002ABE8B0E08D919C91A7E8B0E0CC
:100550008D939C9381E09FEFA9E8B0E08D939C93ED
:1005600084E6482F00918D00041711F00C94C60208
:10057000ABE8B0E08D919C91A7E8B0E08D939C939F
:100580008FEF90E0A9E8B0E08D939C9383E7482F2C
:1005900000918D00041781E009F080E08F9380E2E4
:1005A000482F00918D00041781E009F080E09F91B1
:1005B000892B882311F40C94E90280E090E0A7E8ED
:1005C000B0E08D939C9380E090E0A9E8B0E08D933B
:1005D0009C9381E7482F00918D00041711F00C9433
:1005E000FF02ABE8B0E08D919C91A7E8B0E08D935D
:1005F0009C9381E89FEFA9E8B0E08D939C9385E6FA
:10060000482F00918D00041711F00C941503ABE8EE
:10061000B0E08D919C91A7E8B0E08D939C938FE71B
:1006200090E0A9E8B0E08D939C938AE7482F009171
:100630008D00041711F00C942F03ABE8B0E00D917E
:100640001C914FEF5FEF0E94EF03A7E8B0E00D931E
:100650001C9381E89FEFA9E8B0E08D939C9388E715
:10066000482F00918D00041711F00C9443038EEC79
:100670009FEFA7E8B0E08D939C9380E090E0A9E81D
:10068000B0E08D939C9383E6482F00918D00041772
:1006900011F00C945D03ABE8B0E00D911C914FEFAD
:1006A0005FEF0E94EF03A7E8B0E00D931C938FE784
:1006B00090E0A9E8B0E08D939C938F918FBFFF915C
:1006C000EF91DF91CF91BF91AF919F918F917F91EA
:1006D0006F915F914F913F912F911F910F91BF901B
:1006E000AF907F905F904F903F902F901F900F9012
:1006F0001895089509D00E94EF0300FC10D00895CA
:1007000003D024D001F8F9CF0024E89457FF02C0A9
:1007100009D0689400F80BD010F80124089502D095
:1007200009D00895509540954F5F5F4F0895E89424
:1007300017FF0895009510950F5F1F4F6894089557
:1007400099231AF48095909501960895352F242FBA
:10075000E894452B11F468940895512F402F0027F9
:10076000112780E1440F551F001F111F021B130B9F
:10077000416018F4020F131F4E7F8A9599F7089570
:1007800004D08D933A95E1F708955F9BFECF8CB12D
:1007900008950E940204802D11F005D0FACF08952B
:1007A0008DE001D08AE05D9BFECF8CB90895319732
:1007B000F1F70895689462F80895E89462F808954E
:1007C000EF93FF93EE27E82BE92B31F0E0EAFFE00F
:1007D0003197F1F70197D1F7FF91EF9108950F92BB
:1007E000B801469F8001479F100D569F100D0F9036
:1007F0000895369A3699FECF369A3699FECF84B14F
:1008000095B10895C8953196002008955B324A004D
:100810005B3B48005B33326D000068656C6C6F2099
:06082000776F726C6400AA
:00000001FF
