:100000000C942A001895000018950000189500001F
:10001000189500001895000018950000189500002C
:10002000189500001895000018950000189500001C
:10003000189500001895000018950000189500000C
:1000400018950000189500001895000018950000FC
:10005000189500008FE58DBFC0E4E6E24E2E88E0E3
:100060008EBFD8E0F8E05F2EEEEFF7E0A0E6B0E05C
:1000700088278D933197E9F787E689B980E080BDBD
:1000800088E18AB9662480E884BF80E884BF80E084
:100090008ABB8F9AA098A19887E086B9379A80E0AA
:1000A0008BBB80E085BB8BE10E940501EAE2F3E0B7
:1000B0000E94FB008BE10E940501EEE2F3E00E944A
:1000C000FB0081E080937D0000917D00013018F0FD
:1000D00011F00C94B00000917D0041E0041BAEE7EC
:1000E000B0E00C93AEE7B0E08C9190E0890F87B957
:1000F0000E942101ADE7B0E0AD90BB24AFE6B0E0D7
:10010000AA0CBB1CAA0DBB1D8D939C93E2E3F3E0EC
:100110000E94FB00AEE0B8E0EDE7F0E00E944B018A
:100120000E94F300EAE3F3E00E94FB00AEE0B8E0D7
:10013000EDE7F0E0A190BB24EFE6F0E0AA0CBB1CD9
:10014000EA0DFB1D0E943C010E94F3000E94020187
:10015000ADE7B0E08C918F5F8C9310F40C94640049
:1001600088EC90E00E9412010C945300A99AEF933E
:10017000FF93E4E2F0E00E940901FF91EF91A9985A
:10018000EF93FF93ECE4F0E00E940901FF91EF91FF
:10019000A3E3B0E08C9181FBA0E6B0E08C9187F9FD
:1001A0008C930027A0E6B0E08C9187FB0EF401E071
:1001B00041E0041711F00C94E000979A0C94E100D0
:1001C00097980C94B600EEE3F3E00E94FB000E94C7
:1001D000020184EF91E00E9412010C94E300F89474
:1001E000FFCF00000895AEE0B8E08D91882311F0B4
:1001F0000CD0FBCF08950E942A01802D11F005D06C
:10020000FACF08958DE001D08AE05D9BFECF8CB9D6
:1002100008953197F1F70895689462F80895E89485
:1002200062F80895EF93FF93EE27E82BE92B31F066
:10023000E0EAFFE03197F1F70197D1F7FF91EF91F5
:100240000895369A3699FECF369A3699FECF84B104
:1002500095B10895C895319600200895000F111F9B
:10026000221F331F089500951095209530950F5F3C
:100270001F4F2F4F3F4F0895019110810EC00191E4
:100280001191219130810BC00191108117FF05C0A0
:100290003FEF2FEF04C0008111272227332737FFBC
:1002A00003C0E1DF8DE28D93CF93DF93CF92DF9296
:1002B000EF92AA24BB24CC24DD24EE2440E2CAE041
:1002C000DD2755E093E38881890F87FD9F7083FDCB
:1002D000907F891B89935A95A9F7C0DFAA1CBB1C84
:1002E000CC1CDD1CEE1C4A9551F7E894EFE0FF278B
:1002F00082910ED0EB30E0F71EF068948A2D0CD07E
:1003000088278D93EF90DF90CF90DF91CF91089564
:10031000982F829501D0892F8F70805D26F08033D1
:1003200009F4089568948D9308955B324A005B3B0D
:10033000480073686172702000003A200000686510
:0A0340006C6C6F20776F726C640024
:00000001FF
