:100000000C942A000C946B001895000018950000C1
:1000100018950000189500000C94860018950000B3
:10002000189500001895000018950000189500001C
:10003000189500001895000018950000189500000C
:1000400018950000189500001895000018950000FC
:10005000189500008FE58DBFC0E4E6E24E2E88E0E3
:100060008EBFD8E0F8E05F2EA89584B7082E877F72
:1000700084BF88E1992781BD91BDEEEFF7E0A0E64E
:10008000B0E088278D933197E9F78CE089B980E05B
:1000900080BD88E18AB9662470E874BF70E874BFD7
:1000A000E0EDF1E00E94BE000E94C5007BB77064E5
:1000B0007BBF79B7706279BF7894EAEDF1E00E9476
:1000C000BE000E94C50084EF91E00E94D5000C9410
:1000D0005D00F894FFCF0F921F922F923F924F92A4
:1000E0005F927F92AF92BF920F931F932F933F9394
:1000F0004F935F936F937F938F939F93AF93BF9330
:10010000CF93DF93EF93FF938FB78F930F921F924D
:100110002F923F924F925F927F92AF92BF920F9336
:100120001F932F933F934F935F936F937F938F937F
:100130009F93AF93BF93CF93DF93EF93FF938FB7CB
:100140008F9300008F918FBFFF91EF91DF91CF913F
:10015000BF91AF919F918F917F916F915F914F91DF
:100160003F912F911F910F91BF90AF907F905F9023
:100170004F903F902F901F900F9018950E94E40091
:10018000802D11F005D0FACF08958DE001D08AE0DE
:100190005D9BFECF8CB908953197F1F7089568946F
:1001A00062F80895E89462F80895EF93FF93EE27BC
:1001B000E82BE92B31F0E8EEF3E03197F1F7019706
:1001C000D1F7FF91EF910895C895319600200895D9
:1001D00074657374204D3332000068656C6C6F2059
:0601E000776F726C6400F1
:00000001FF
