:100000000C942A001895000018950000189500001F
:10001000189500001895000018950000189500002C
:10002000189500001895000018950000189500001C
:10003000189500000C94990218950000189500007E
:1000400018950000189500001895000018950000FC
:10005000189500008FE58DBFC0E4E6E24E2E88E0E3
:100060008EBFD8E0F8E05F2EEEEFF7E0A0E6B0E05C
:1000700088278D933197E9F787E689B980E080BDBD
:1000800088E18AB9662480E884BF80E884BF80E084
:100090008ABBBB9AA098A198A298A3988C9A8D9A93
:1000A0008E9A8F9A87E086B9379A8D9A8C9A81EAD0
:1000B0008FBD83E08EBD8DE083BF8DE083BF81EF78
:1000C0009FEFA1E8B0E08D939C938FE090E0A3E8D0
:1000D000B0E08D939C938FEF90E0A5E8B0E08D9316
:1000E0009C9381E09FEFA7E8B0E08D939C9388E814
:1000F0009FEFA9E8B0E08D939C9381EF9FEFABE871
:10010000B0E08D939C9380E08BBB80E085BB80E06A
:1001100082BB80E090E090934B0080934A0080E0A7
:1001200090E0909349008093480080E090E0A3E93C
:10013000B0E08D939C9380E090E0A5E9B0E08D93D2
:100140009C9382E390E0A7E9B0E08D939C9380E0DC
:1001500080939B0081E080939A0082E080939C00D2
:10016000579A78948AE183BF8BE180935C008BE19E
:100170000E941E04E2EAF8E00E9414048BE10E944F
:100180001E04E6EAF8E00E9414048BE10E941E04BB
:10019000EAEAF8E00E94140481E080938D00409127
:1001A0009C0000918D00041718F011F00C941D01B3
:1001B00000918D0041E0041BAEE8B0E00C93AEE886
:1001C000B0E08C9190E0890F87B90E944404AFE8B9
:1001D000B0E08D939C93AFE8B0E00D911C91ADE839
:1001E000B0E0AD90BB24AFE6B0E0AA0CBB1CAA0DFA
:1001F000BB1D4D915C91040F151FAFE8B0E00D934E
:100200001C93AFE8B0E00D911C9142E050E00E94D9
:10021000F103ADE8B0E0AD90BB24AFE6B0E0AA0CCE
:10022000BB1CAA0DBB1D4D935C93ADE8B0E08C9157
:100230008F5F8C9310F40C94CF00F894A89AA99A2D
:10024000AA9AAB9AEF93FF93E4E2F0E00E942204B3
:10025000FF91EF91A898A998AA98AB98EF93FF9374
:10026000ECE4F0E00E942204FF91EF91A3E3B0E000
:100270008C9180FBADE7B0E0882780F98C93A3E3F5
:10028000B0E08C9181FBAEE7B0E0882780F98C93D9
:10029000A3E3B0E08C9182FBAFE7B0E0882780F960
:1002A0008C93A3E3B0E08C9183FBA0E8B0E08827B7
:1002B00080F98C937894A3E9B0E00D911C91003003
:1002C00050E0150781E009F080E08F93A5E9B0E0E8
:1002D0000D911C91003050E0150781E009F080E09D
:1002E0009F918923882311F40C94880180E090E089
:1002F00090934B0080934A0080E090E090934900F7
:1003000080934800969A979A929A939A0C948602B0
:10031000A5E9B0E00D911C9100385FEF150780E072
:1003200014F009F081E08F93A5E9B0E00D911C91E4
:10033000003850E0150780E00CF481E09F9189239C
:10034000882311F40C94BB01A3E9B0E00D911C913A
:10035000003050E015071CF011F00C94B1010C9422
:10036000B701969A9798929A93980C94BB01969895
:10037000979A9298939AA5E9B0E00D911C91013853
:100380005FEF15070CF402C00C94DD01A3E9B0E0A7
:100390000D911C91003050E015071CF011F00C94E9
:1003A000D3010C94D901969A97989298939A0C94A9
:1003B000DD019698979A929A9398A5E9B0E00D91ED
:1003C0001C910F3750E015071CF011F00C94EA0156
:1003D0000C94FF01A3E9B0E00D911C91003050E0B6
:1003E00015070CF402C00C94FB01969A979892980A
:1003F000939A0C94FF019698979A929A9398A5E9EC
:10040000B0E08D919C910E94EB03A1E9B0E08D9347
:100410009C9300E810E0A1E9B0E04D915C91041BD1
:10042000150BA1E9B0E00D931C93A1E9B0E08D910B
:100430009C910E94EB03A1E9B0E08D939C93A1E90C
:10044000B0E00D911C91A3E9B0E04D915C910E9448
:100450003A04A1E9B0E00D931C93A1E9B0E00D913D
:100460001C9140E850E00E94CB03A1E9B0E04D931D
:100470005C93A1E9B0E08D919C910E94EB03A1E90E
:10048000B0E08D939C93A5E9B0E00D911C910030F4
:1004900050E015071CF011F00C9450020C946C0203
:1004A000A1E9B0E08D919C91909349008093480020
:1004B000A3E9B0E08D919C910E94EB03A1E9B0E02B
:1004C0008D939C93A1E9B0E08D919C9190934B000A
:1004D00080934A000C948602A1E9B0E08D919C9132
:1004E00090934B0080934A00A3E9B0E08D919C91DA
:1004F0000E94EB03A1E9B0E08D939C93A1E9B0E0E9
:100500008D919C9190934900809348000C94B70082
:100510000C948802E0EBF8E00E9414040E941B0493
:1005200084EF91E00E942B040C948A02F894FFCF90
:1005300000000F921F922F923F924F925F927F92F4
:10054000AF92BF920F931F932F933F934F935F935D
:100550006F937F938F939F93AF93BF93CF93DF93CB
:10056000EF93FF938FB78F9331E0A9E9B0E00E943A
:100570000B0487E7482F00919900041711F00C94A1
:10058000CF02A7E9B0E08D919C91A3E9B0E08D93F3
:100590009C9380E090E0A5E9B0E08D939C9381E688
:1005A000482F00919900041711F00C94E502A7E977
:1005B000B0E08D919C91A3E9B0E08D939C9381E094
:1005C0009FEFA5E9B0E08D939C9384E6482F0091BE
:1005D0009900041711F00C94FB02A7E9B0E08D918B
:1005E0009C91A3E9B0E08D939C938FEF90E0A5E9F7
:1005F000B0E08D939C9383E7482F009199000417F6
:1006000081E009F080E08F9380E2482F009199000B
:10061000041781E009F080E09F91892B882311F471
:100620000C941E0380E090E0A3E9B0E08D939C93CE
:1006300080E090E0A5E9B0E08D939C9381E7482F9E
:1006400000919900041711F00C943403A7E9B0E06D
:100650008D919C91A3E9B0E08D939C9381E89FEFED
:10066000A5E9B0E08D939C9385E6482F0091990011
:10067000041711F00C944A03A7E9B0E08D919C9106
:10068000A3E9B0E08D939C938FE790E0A5E9B0E0FB
:100690008D939C938AE7482F00919900041711F0DD
:1006A0000C946403A7E9B0E00D911C914FEF5FEF4C
:1006B0000E943A04A3E9B0E00D931C9381E89FEFF8
:1006C000A5E9B0E08D939C9388E7482F00919900AD
:1006D000041711F00C9478038EEC9FEFA3E9B0E0BF
:1006E0008D939C9380E090E0A5E9B0E08D939C937E
:1006F0008AE6482F00919900041711F00C948303A7
:1007000081E080939A008AE4482F009199000417B1
:1007100011F00C948E0380E080939A0083E6482FBA
:1007200000919900041711F00C94A803A7E9B0E018
:100730000D911C914FEF5FEF0E943A04A3E9B0E0E6
:100740000D931C938FE790E0A5E9B0E08D939C9307
:100750008F918FBFFF91EF91DF91CF91BF91AF91BB
:100760009F918F917F916F915F914F913F912F91C9
:100770001F910F91BF90AF907F905F904F903F90EF
:100780002F901F900F901895089509D00E943A0459
:1007900000FC10D0089503D024D001F8F9CF002434
:1007A000E89457FF02C009D0689400F80BD010F805
:1007B0000124089502D009D00895509540954F5FC7
:1007C0005F4F0895E89417FF0895009510950F5F07
:1007D0001F4F6894089599231AF480959095019677
:1007E0000895352F242FE894452B11F4689408952B
:1007F000512F402F0027112780E1440F551F001F64
:10080000111F021B130B416018F4020F131F4E7FC0
:100810008A9599F7089504D08D933A95E1F7089554
:100820005F9BFECF8CB108950E944D04802D11F086
:1008300005D0FACF08958DE001D08AE05D9BFECF10
:100840008CB908953197F1F70895689462F8089586
:10085000E89462F80895EF93FF93EE27E82BE92BD5
:1008600031F0E0EAFFE03197F1F70197D1F7FF911E
:10087000EF9108950F92B801469F8001479F100D98
:10088000569F100D0F900895369A3699FECF369ADE
:100890003699FECF84B195B10895C8953196002060
:1008A00008955B324A005B3B48005B33326D0000C9
:0C08B00068656C6C6F20776F726C6400E0
:00000001FF
